:100000000C942A000C9447000C9447000C94470071
:100010000C9447000C9447000C9447000C94470044
:100020000C94CB000C9447000C9447000C94670090
:100030000C9447000C9447000C9447000C94470024
:100040000C9447000C9447000C9447000C94470014
:100050000C94470011241FBECFE5D4E0DEBFCDBF16
:1000600010E0A0E6B0E0E0E3F2E002C005900D92FF
:10007000A837B107D9F710E0A8E7B0E001C01D929A
:10008000AA37B107E1F70E949D000C9416010C9469
:10009000000090BD89B988E18AB986E880BD0895DD
:1000A0005D9BFECF8CB90895FC0104C05D9BFECF23
:1000B0008CB9319680818823C9F708955F9BFECF64
:1000C0008CB108955D9BFECF509A8CB908951F9214
:1000D0000F920FB60F9211248F938CB180937900F9
:1000E000809179005D9BFECF8CB98F910F900FBEF0
:1000F0000F901F901895DF93CF930F92CDB7DEB777
:10010000898320E030E0FE013196808190E0022E6C
:1001100002C0959587950A94E2F780FF02C0D99AAC
:1001200001C0D998DA98DA9A2F5F3F4F283031050D
:1001300061F70F90CF91DF9108958AB387608ABBF2
:100140008BB31BBA84B38FEF84BB85B385BB82E0CE
:100150008EBD82E79FED9DBD8CBD84E089BF789404
:1001600010BC88E089B988E18AB986E880BD80E65C
:1001700090E00E94540080E05F9BFECF9CB15D9BAD
:10018000FECF9CB9E82FF0E0E159FF4F90838F5FDD
:10019000883091F7F0CF1F920F920FB60F92112473
:1001A000EF92FF921F932F933F934F935F936F9321
:1001B0007F938F939F93AF93BF93EF93FF9382E7C8
:1001C0009FED9DBD8CBD85B385BB10917800E12E60
:1001D000FF24F701E159FF4F80810E947B00D898EE
:1001E000D89A81E090E0012E02C0880F991F0A94EE
:1001F000E2F7809585BB1F5F10937800183011F4EB
:1002000010927800FF91EF91BF91AF919F918F91E4
:100210007F916F915F914F913F912F911F91FF902F
:10022000EF900F900FBE0F901F901895F894FFCF8E
:100230004C6564204D6174726978203878380038D4
:080240004444447C44440000E6
:00000001FF
