:100000000C942A000C9447000C9447000C94470071
:100010000C9447000C9447000C9447000C94470044
:100020000C94CB000C9447000C9447000C94670090
:100030000C9447000C9447000C9447000C94470024
:100040000C9447000C9447000C9447000C94470014
:100050000C94470011241FBECFE5D4E0DEBFCDBF16
:1000600010E0A0E6B0E0E8E6F2E002C005900D92F4
:10007000A039B107D9F710E0A0E9B0E001C01D92A6
:10008000A239B107E1F70E949D000C9432010C9453
:10009000000090BD89B988E18AB986E880BD0895DD
:1000A0005D9BFECF8CB90895FC0104C05D9BFECF23
:1000B0008CB9319680818823C9F708955F9BFECF64
:1000C0008CB108955D9BFECF509A8CB908951F9214
:1000D0000F920FB60F9211248F938CB180939100E1
:1000E000809191005D9BFECF8CB98F910F900FBED8
:1000F0000F901F901895DF93CF930F92CDB7DEB777
:10010000898320E030E0FE013196808190E0022E6C
:1001100002C0959587950A94E2F780FF02C0D99AAC
:1001200001C0D998DA98DA9A2F5F3F4F283031050D
:1001300061F70F90CF91DF9108958AB387608ABBF2
:100140008BB31BBA84B38FEF84BB85B385BB82E0CE
:100150008EBD82E79FED9DBD8CBD84E089BF789404
:1001600010BC88E089B988E18AB986E880BD80E65C
:1001700090E00E94540080E05F9BFECF9CB15D9BAD
:10018000FECF9CB9E82FF0E0E059FF4F90838F5FDE
:10019000803291F7F0CF1F920F920FB60F92112479
:1001A000DF92EF92FF920F931F932F933F934F9302
:1001B0005F936F937F938F939F93AF93BF93EF93CF
:1001C000FF9382E79FED9DBD8CBD85B385BBD0902D
:1001D0009000ED2CFF248701000F111F000F111F4D
:1001E00000591F4FF80183810E947B00F701EE0F39
:1001F000FF1FEE0FFF1FEE58FF4F80810E947B0014
:10020000F80181810E947B00F80180810E947B00BF
:10021000D898D89A81E090E00D2C02C0880F991FE1
:100220000A94E2F7809585BB8D2D8F5F80939000B7
:10023000883011F410929000FF91EF91BF91AF912F
:100240009F918F917F916F915F914F913F912F91EE
:100250001F910F91FF90EF90DF900F900FBE0F90C6
:080260001F901895F894FFCFE0
:100268004C6564204D6174726978203878333200A7
:10027800FFFFFFFFFFFFFFFFFFFFFFFFFFFFFFFF86
:10028800FFFFFFFFFFFFFFFFFFFFFFFFFFFFFFFF76
:00000001FF
